{
    "contractName": "MyPausable",
    "abi": [
        {
            "inputs": [],
            "stateMutability": "nonpayable",
            "type": "constructor"
        },
        {
            "inputs": [],
            "name": "_pause",
            "outputs": [],
            "stateMutability": "nonpayable",
            "type": "function"
        }
    ],
    "bytecode": "608060405234801561001057600080fd5b50600080546001600160a81b0319163317905560ca806100316000396000f3fe6080604052348015600f57600080fd5b506004361060285760003560e01c8063320b2ad914602d575b600080fd5b60336035565b005b6000546001600160a01b03163314607f5760405162461bcd60e51b815260206004820152600a60248201526927b7363c9020b236b4b760b11b604482015260640160405180910390fd5b6000805460ff60a01b1916600160a01b17905556fea2646970667358221220f39256c9c964a6a4bc4770a56de35924c3717ff83661022128348c742d706bb564736f6c63430008040033",
    "sourcePath": "d:/CrowdFunding/contracts/MyPausable.sol",
    "compiler": {
        "name": "solc",
        "version": "0.8.4+commit.c7e474f2"
    },
    "functionHashes": {
        "_pause()": "320b2ad9"
    },
    "gasEstimates": {
        "creation": {
            "codeDepositCost": "40400",
            "executionCost": "20928",
            "totalCost": "61328"
        },
        "external": {
            "_pause()": "21798"
        },
        "internal": {
            "_unpause()": "infinite"
        }
    }
}