{
  "contractName": "Crowdsale",
  "abi": [
    {
      "inputs": [
        {
          "internalType": "uint256",
          "name": "rate",
          "type": "uint256"
        },
        {
          "internalType": "address payable",
          "name": "wallet",
          "type": "address"
        },
        {
          "internalType": "contract IERC20",
          "name": "token",
          "type": "address"
        }
      ],
      "stateMutability": "nonpayable",
      "type": "constructor"
    },
    {
      "anonymous": false,
      "inputs": [
        {
          "indexed": true,
          "internalType": "address",
          "name": "purchaser",
          "type": "address"
        },
        {
          "indexed": true,
          "internalType": "address",
          "name": "beneficiary",
          "type": "address"
        },
        {
          "indexed": false,
          "internalType": "uint256",
          "name": "value",
          "type": "uint256"
        },
        {
          "indexed": false,
          "internalType": "uint256",
          "name": "amount",
          "type": "uint256"
        }
      ],
      "name": "TokensPurchased",
      "type": "event"
    },
    {
      "stateMutability": "payable",
      "type": "receive"
    },
    {
      "inputs": [],
      "name": "tokenShow",
      "outputs": [
        {
          "internalType": "contract IERC20",
          "name": "",
          "type": "address"
        }
      ],
      "stateMutability": "view",
      "type": "function"
    },
    {
      "inputs": [],
      "name": "walletShow",
      "outputs": [
        {
          "internalType": "address payable",
          "name": "",
          "type": "address"
        }
      ],
      "stateMutability": "view",
      "type": "function"
    },
    {
      "inputs": [],
      "name": "rateShow",
      "outputs": [
        {
          "internalType": "uint256",
          "name": "",
          "type": "uint256"
        }
      ],
      "stateMutability": "view",
      "type": "function"
    },
    {
      "inputs": [],
      "name": "weiRaised",
      "outputs": [
        {
          "internalType": "uint256",
          "name": "",
          "type": "uint256"
        }
      ],
      "stateMutability": "view",
      "type": "function"
    },
    {
      "inputs": [],
      "name": "_msgSender",
      "outputs": [
        {
          "internalType": "address payable",
          "name": "",
          "type": "address"
        }
      ],
      "stateMutability": "view",
      "type": "function"
    },
    {
      "inputs": [],
      "name": "_msgData",
      "outputs": [
        {
          "internalType": "bytes",
          "name": "",
          "type": "bytes"
        }
      ],
      "stateMutability": "view",
      "type": "function"
    },
    {
      "inputs": [
        {
          "internalType": "address",
          "name": "beneficiary",
          "type": "address"
        }
      ],
      "name": "buyTokens",
      "outputs": [],
      "stateMutability": "payable",
      "type": "function"
    }
  ],
  "bytecode": "0x60806040523480156200001157600080fd5b506040516200160c3803806200160c833981810160405281019062000037919062000254565b60016000806101000a81548160ff0219169083151502179055506000831162000097576040517f08c379a00000000000000000000000000000000000000000000000000000000081526004016200008e9062000341565b60405180910390fd5b600073ffffffffffffffffffffffffffffffffffffffff168273ffffffffffffffffffffffffffffffffffffffff1614156200010a576040517f08c379a0000000000000000000000000000000000000000000000000000000008152600401620001019062000363565b60405180910390fd5b600073ffffffffffffffffffffffffffffffffffffffff168173ffffffffffffffffffffffffffffffffffffffff1614156200017d576040517f08c379a000000000000000000000000000000000000000000000000000000000815260040162000174906200031f565b60405180910390fd5b8260028190555081600160006101000a81548173ffffffffffffffffffffffffffffffffffffffff021916908373ffffffffffffffffffffffffffffffffffffffff16021790555080600060016101000a81548173ffffffffffffffffffffffffffffffffffffffff021916908373ffffffffffffffffffffffffffffffffffffffff16021790555050505062000511565b6000815190506200022081620004c3565b92915050565b6000815190506200023781620004dd565b92915050565b6000815190506200024e81620004f7565b92915050565b6000806000606084860312156200026a57600080fd5b60006200027a868287016200023d565b93505060206200028d868287016200020f565b9250506040620002a08682870162000226565b9150509250925092565b6000620002b960248362000385565b9150620002c682620003fc565b604082019050919050565b6000620002e060148362000385565b9150620002ed826200044b565b602082019050919050565b60006200030760258362000385565b9150620003148262000474565b604082019050919050565b600060208201905081810360008301526200033a81620002aa565b9050919050565b600060208201905081810360008301526200035c81620002d1565b9050919050565b600060208201905081810360008301526200037e81620002f8565b9050919050565b600082825260208201905092915050565b6000620003a382620003d2565b9050919050565b6000620003b782620003d2565b9050919050565b6000620003cb8262000396565b9050919050565b600073ffffffffffffffffffffffffffffffffffffffff82169050919050565b6000819050919050565b7f43726f776473616c653a20746f6b656e20697320746865207a65726f2061646460008201527f7265737300000000000000000000000000000000000000000000000000000000602082015250565b7f43726f776473616c653a20726174652069732030000000000000000000000000600082015250565b7f43726f776473616c653a2077616c6c657420697320746865207a65726f20616460008201527f6472657373000000000000000000000000000000000000000000000000000000602082015250565b620004ce81620003aa565b8114620004da57600080fd5b50565b620004e881620003be565b8114620004f457600080fd5b50565b6200050281620003f2565b81146200050e57600080fd5b50565b6110eb80620005216000396000f3fe6080604052600436106100745760003560e01c80638b49d47e1161004e5780638b49d47e14610111578063b26214c01461013c578063ec8ac4d814610167578063f8c365ea146101835761008b565b80630792edd514610090578063119df25f146100bb5780634042b66f146100e65761008b565b3661008b576100896100846101ae565b6101b6565b005b600080fd5b34801561009c57600080fd5b506100a5610307565b6040516100b29190610acf565b60405180910390f35b3480156100c757600080fd5b506100d06101ae565b6040516100dd9190610acf565b60405180910390f35b3480156100f257600080fd5b506100fb610331565b6040516101089190610c50565b60405180910390f35b34801561011d57600080fd5b5061012661033b565b6040516101339190610b13565b60405180910390f35b34801561014857600080fd5b50610151610388565b60405161015e9190610b35565b60405180910390f35b610181600480360381019061017c91906108a8565b6101b6565b005b34801561018f57600080fd5b506101986103b1565b6040516101a59190610c50565b60405180910390f35b600033905090565b60008054906101000a900460ff16610203576040517f08c379a00000000000000000000000000000000000000000000000000000000081526004016101fa90610bf0565b60405180910390fd5b60008060006101000a81548160ff021916908315150217905550600034905061022c82826103bb565b600061023782610473565b905061024e8260035461049190919063ffffffff16565b60038190555061025e83826104ef565b8273ffffffffffffffffffffffffffffffffffffffff1661027d6101ae565b73ffffffffffffffffffffffffffffffffffffffff167f6faf93231a456e552dbc9961f58d9713ee4f2e69d15f1975b050ef0911053a7b84846040516102c4929190610c6b565b60405180910390a36102d683836104fd565b6102de610501565b6102e8838361056c565b505060016000806101000a81548160ff02191690831515021790555050565b6000600160009054906101000a900473ffffffffffffffffffffffffffffffffffffffff16905090565b6000600354905090565b60606000368080601f016020809104026020016040519081016040528093929190818152602001838380828437600081840152601f19601f82011690508083019250505050505050905090565b60008060019054906101000a900473ffffffffffffffffffffffffffffffffffffffff16905090565b6000600254905090565b600073ffffffffffffffffffffffffffffffffffffffff168273ffffffffffffffffffffffffffffffffffffffff16141561042b576040517f08c379a000000000000000000000000000000000000000000000000000000000815260040161042290610bb0565b60405180910390fd5b600081141561046f576040517f08c379a000000000000000000000000000000000000000000000000000000000815260040161046690610c10565b60405180910390fd5b5050565b600061048a6002548361057090919063ffffffff16565b9050919050565b60008082846104a09190610ccc565b9050838110156104e5576040517f08c379a00000000000000000000000000000000000000000000000000000000081526004016104dc90610b50565b60405180910390fd5b8091505092915050565b6104f982826105eb565b5050565b5050565b600160009054906101000a900473ffffffffffffffffffffffffffffffffffffffff1673ffffffffffffffffffffffffffffffffffffffff166108fc349081150290604051600060405180830381858888f19350505050158015610569573d6000803e3d6000fd5b50565b5050565b60008083141561058357600090506105e5565b600082846105919190610d53565b90508284826105a09190610d22565b146105e0576040517f08c379a00000000000000000000000000000000000000000000000000000000081526004016105d790610b90565b60405180910390fd5b809150505b92915050565b6106388282600060019054906101000a900473ffffffffffffffffffffffffffffffffffffffff1673ffffffffffffffffffffffffffffffffffffffff1661063c9092919063ffffffff16565b5050565b6106bd8363a9059cbb60e01b848460405160240161065b929190610aea565b604051602081830303815290604052907bffffffffffffffffffffffffffffffffffffffffffffffffffffffff19166020820180517bffffffffffffffffffffffffffffffffffffffffffffffffffffffff83818316178352505050506106c2565b505050565b6106e18273ffffffffffffffffffffffffffffffffffffffff16610833565b610720576040517f08c379a000000000000000000000000000000000000000000000000000000000815260040161071790610c30565b60405180910390fd5b6000808373ffffffffffffffffffffffffffffffffffffffff16836040516107489190610ab8565b6000604051808303816000865af19150503d8060008114610785576040519150601f19603f3d011682016040523d82523d6000602084013e61078a565b606091505b5091509150816107cf576040517f08c379a00000000000000000000000000000000000000000000000000000000081526004016107c690610b70565b60405180910390fd5b60008151111561082d57808060200190518101906107ed91906108d1565b61082c576040517f08c379a000000000000000000000000000000000000000000000000000000000815260040161082390610bd0565b60405180910390fd5b5b50505050565b60008060007fc5d2460186f7233c927e7db2dcc703c0e500b653ca82273b7bfad8045d85a47060001b9050833f915080821415801561087557506000801b8214155b92505050919050565b60008135905061088d81611087565b92915050565b6000815190506108a28161109e565b92915050565b6000602082840312156108ba57600080fd5b60006108c88482850161087e565b91505092915050565b6000602082840312156108e357600080fd5b60006108f184828501610893565b91505092915050565b61090381610dbf565b82525050565b61091281610dad565b82525050565b600061092382610c94565b61092d8185610c9f565b935061093d818560208601610e2b565b61094681610ebc565b840191505092915050565b600061095c82610c94565b6109668185610cb0565b9350610976818560208601610e2b565b80840191505092915050565b61098b81610e07565b82525050565b600061099e601b83610cbb565b91506109a982610ecd565b602082019050919050565b60006109c1602083610cbb565b91506109cc82610ef6565b602082019050919050565b60006109e4602183610cbb565b91506109ef82610f1f565b604082019050919050565b6000610a07602a83610cbb565b9150610a1282610f6e565b604082019050919050565b6000610a2a602a83610cbb565b9150610a3582610fbd565b604082019050919050565b6000610a4d601f83610cbb565b9150610a588261100c565b602082019050919050565b6000610a70601983610cbb565b9150610a7b82611035565b602082019050919050565b6000610a93601f83610cbb565b9150610a9e8261105e565b602082019050919050565b610ab281610dfd565b82525050565b6000610ac48284610951565b915081905092915050565b6000602082019050610ae460008301846108fa565b92915050565b6000604082019050610aff6000830185610909565b610b0c6020830184610aa9565b9392505050565b60006020820190508181036000830152610b2d8184610918565b905092915050565b6000602082019050610b4a6000830184610982565b92915050565b60006020820190508181036000830152610b6981610991565b9050919050565b60006020820190508181036000830152610b89816109b4565b9050919050565b60006020820190508181036000830152610ba9816109d7565b9050919050565b60006020820190508181036000830152610bc9816109fa565b9050919050565b60006020820190508181036000830152610be981610a1d565b9050919050565b60006020820190508181036000830152610c0981610a40565b9050919050565b60006020820190508181036000830152610c2981610a63565b9050919050565b60006020820190508181036000830152610c4981610a86565b9050919050565b6000602082019050610c656000830184610aa9565b92915050565b6000604082019050610c806000830185610aa9565b610c8d6020830184610aa9565b9392505050565b600081519050919050565b600082825260208201905092915050565b600081905092915050565b600082825260208201905092915050565b6000610cd782610dfd565b9150610ce283610dfd565b9250827fffffffffffffffffffffffffffffffffffffffffffffffffffffffffffffffff03821115610d1757610d16610e5e565b5b828201905092915050565b6000610d2d82610dfd565b9150610d3883610dfd565b925082610d4857610d47610e8d565b5b828204905092915050565b6000610d5e82610dfd565b9150610d6983610dfd565b9250817fffffffffffffffffffffffffffffffffffffffffffffffffffffffffffffffff0483118215151615610da257610da1610e5e565b5b828202905092915050565b6000610db882610ddd565b9050919050565b6000610dca82610ddd565b9050919050565b60008115159050919050565b600073ffffffffffffffffffffffffffffffffffffffff82169050919050565b6000819050919050565b6000610e1282610e19565b9050919050565b6000610e2482610ddd565b9050919050565b60005b83811015610e49578082015181840152602081019050610e2e565b83811115610e58576000848401525b50505050565b7f4e487b7100000000000000000000000000000000000000000000000000000000600052601160045260246000fd5b7f4e487b7100000000000000000000000000000000000000000000000000000000600052601260045260246000fd5b6000601f19601f8301169050919050565b7f536166654d6174683a206164646974696f6e206f766572666c6f770000000000600082015250565b7f5361666545524332303a206c6f772d6c6576656c2063616c6c206661696c6564600082015250565b7f536166654d6174683a206d756c7469706c69636174696f6e206f766572666c6f60008201527f7700000000000000000000000000000000000000000000000000000000000000602082015250565b7f43726f776473616c653a2062656e656669636961727920697320746865207a6560008201527f726f206164647265737300000000000000000000000000000000000000000000602082015250565b7f5361666545524332303a204552433230206f7065726174696f6e20646964206e60008201527f6f74207375636365656400000000000000000000000000000000000000000000602082015250565b7f5265656e7472616e637947756172643a207265656e7472616e742063616c6c00600082015250565b7f43726f776473616c653a20776569416d6f756e74206973203000000000000000600082015250565b7f5361666545524332303a2063616c6c20746f206e6f6e2d636f6e747261637400600082015250565b61109081610dad565b811461109b57600080fd5b50565b6110a781610dd1565b81146110b257600080fd5b5056fea26469706673582212206ee8e4fbc6bab1d2e180cab8e8445f907005e28c420a0613a7b293302ddd4d8064736f6c63430008030033",
  "immutableReferences": {},
  "source": "// SPDX-License-Identifier: MIT\r\npragma solidity ^0.8.0;\r\n\r\n/*\r\n * @dev Provides information about the current execution context, including the\r\n * sender of the transaction and its data. While these are generally available\r\n * via msg.sender and msg.data, they should not be accessed in such a direct\r\n * manner, since when dealing with GSN meta-transactions the account sending and\r\n * paying for execution may not be the actual sender (as far as an application\r\n * is concerned).\r\n *\r\n * This contract is only required for intermediate, library-like contracts.\r\n */\r\n// contract Context {\r\n//     // Empty internal constructor, to prevent people from mistakenly deploying\r\n//     // an instance of this contract, which should be used via inheritance.\r\n//     constructor() {}\r\n\r\n//     // solhint-disable-previous-line no-empty-blocks\r\n\r\n//     function _msgSender() public view returns (address payable) {\r\n//         return payable(msg.sender);\r\n//     }\r\n\r\n//     function _msgData() public view returns (bytes memory) {\r\n//         this; // silence state mutability warning without generating bytecode - see https://github.com/ethereum/solidity/issues/2691\r\n//         return msg.data;\r\n//     }\r\n// }\r\n\r\n// File: contracts/token/ERC20/IERC20.sol\r\n\r\npragma solidity ^0.8.0;\r\n\r\n/**\r\n * @dev Interface of the ERC20 standard as defined in the EIP. Does not include\r\n * the optional functions; to access them see {ERC20Detailed}.\r\n */\r\ninterface IERC20 {\r\n    /**\r\n     * @dev Returns the amount of tokens in existence.\r\n     */\r\n    function totalSupply() external view returns (uint256);\r\n\r\n    /**\r\n     * @dev Returns the amount of tokens owned by `account`.\r\n     */\r\n    function balanceOf(address account) external view returns (uint256);\r\n\r\n    /**\r\n     * @dev Moves `amount` tokens from the caller's account to `recipient`.\r\n     *\r\n     * Returns a boolean value indicating whether the operation succeeded.\r\n     *\r\n     * Emits a {Transfer} event.\r\n     */\r\n    function transfer(address recipient, uint256 amount)\r\n        external\r\n        returns (bool);\r\n\r\n    /**\r\n     * @dev Returns the remaining number of tokens that `spender` will be\r\n     * allowed to spend on behalf of `owner` through {transferFrom}. This is\r\n     * zero by default.\r\n     *\r\n     * This value changes when {approve} or {transferFrom} are called.\r\n     */\r\n    function allowance(address owner, address spender)\r\n        external\r\n        view\r\n        returns (uint256);\r\n\r\n    /**\r\n     * @dev Sets `amount` as the allowance of `spender` over the caller's tokens.\r\n     *\r\n     * Returns a boolean value indicating whether the operation succeeded.\r\n     *\r\n     * IMPORTANT: Beware that changing an allowance with this method brings the risk\r\n     * that someone may use both the old and the new allowance by unfortunate\r\n     * transaction ordering. One possible solution to mitigate this race\r\n     * condition is to first reduce the spender's allowance to 0 and set the\r\n     * desired value afterwards:\r\n     * https://github.com/ethereum/EIPs/issues/20#issuecomment-263524729\r\n     *\r\n     * Emits an {Approval} event.\r\n     */\r\n    function approve(address spender, uint256 amount) external returns (bool);\r\n\r\n    /**\r\n     * @dev Moves `amount` tokens from `sender` to `recipient` using the\r\n     * allowance mechanism. `amount` is then deducted from the caller's\r\n     * allowance.\r\n     *\r\n     * Returns a boolean value indicating whether the operation succeeded.\r\n     *\r\n     * Emits a {Transfer} event.\r\n     */\r\n    function transferFrom(\r\n        address sender,\r\n        address recipient,\r\n        uint256 amount\r\n    ) external returns (bool);\r\n\r\n    /**\r\n     * @dev Emitted when `value` tokens are moved from one account (`from`) to\r\n     * another (`to`).\r\n     *\r\n     * Note that `value` may be zero.\r\n     */\r\n    event Transfer(address indexed from, address indexed to, uint256 value);\r\n\r\n    /**\r\n     * @dev Emitted when the allowance of a `spender` for an `owner` is set by\r\n     * a call to {approve}. `value` is the new allowance.\r\n     */\r\n    event Approval(\r\n        address indexed owner,\r\n        address indexed spender,\r\n        uint256 value\r\n    );\r\n}\r\n\r\n// File: contracts/math/SafeMath.sol\r\n\r\npragma solidity ^0.8.0;\r\n\r\n/**\r\n * @dev Wrappers over Solidity's arithmetic operations with added overflow\r\n * checks.\r\n *\r\n * Arithmetic operations in Solidity wrap on overflow. This can easily result\r\n * in bugs, because programmers usually assume that an overflow raises an\r\n * error, which is the standard behavior in high level programming languages.\r\n * `SafeMath` restores this intuition by reverting the transaction when an\r\n * operation overflows.\r\n *\r\n * Using this library instead of the unchecked operations eliminates an entire\r\n * class of bugs, so it's recommended to use it always.\r\n */\r\nlibrary SafeMath {\r\n    /**\r\n     * @dev Returns the addition of two unsigned integers, reverting on\r\n     * overflow.\r\n     *\r\n     * Counterpart to Solidity's `+` operator.\r\n     *\r\n     * Requirements:\r\n     * - Addition cannot overflow.\r\n     */\r\n    function add(uint256 a, uint256 b) internal pure returns (uint256) {\r\n        uint256 c = a + b;\r\n        require(c >= a, \"SafeMath: addition overflow\");\r\n\r\n        return c;\r\n    }\r\n\r\n    /**\r\n     * @dev Returns the subtraction of two unsigned integers, reverting on\r\n     * overflow (when the result is negative).\r\n     *\r\n     * Counterpart to Solidity's `-` operator.\r\n     *\r\n     * Requirements:\r\n     * - Subtraction cannot overflow.\r\n     */\r\n    function sub(uint256 a, uint256 b) internal pure returns (uint256) {\r\n        return sub(a, b, \"SafeMath: subtraction overflow\");\r\n    }\r\n\r\n    /**\r\n     * @dev Returns the subtraction of two unsigned integers, reverting with custom message on\r\n     * overflow (when the result is negative).\r\n     *\r\n     * Counterpart to Solidity's `-` operator.\r\n     *\r\n     * Requirements:\r\n     * - Subtraction cannot overflow.\r\n     *\r\n     * _Available since v2.4.0._\r\n     */\r\n    function sub(\r\n        uint256 a,\r\n        uint256 b,\r\n        string memory errorMessage\r\n    ) internal pure returns (uint256) {\r\n        require(b <= a, errorMessage);\r\n        uint256 c = a - b;\r\n\r\n        return c;\r\n    }\r\n\r\n    /**\r\n     * @dev Returns the multiplication of two unsigned integers, reverting on\r\n     * overflow.\r\n     *\r\n     * Counterpart to Solidity's `*` operator.\r\n     *\r\n     * Requirements:\r\n     * - Multiplication cannot overflow.\r\n     */\r\n    function mul(uint256 a, uint256 b) internal pure returns (uint256) {\r\n        // Gas optimization: this is cheaper than requiring 'a' not being zero, but the\r\n        // benefit is lost if 'b' is also tested.\r\n        // See: https://github.com/OpenZeppelin/openzeppelin-contracts/pull/522\r\n        if (a == 0) {\r\n            return 0;\r\n        }\r\n\r\n        uint256 c = a * b;\r\n        require(c / a == b, \"SafeMath: multiplication overflow\");\r\n\r\n        return c;\r\n    }\r\n\r\n    /**\r\n     * @dev Returns the integer division of two unsigned integers. Reverts on\r\n     * division by zero. The result is rounded towards zero.\r\n     *\r\n     * Counterpart to Solidity's `/` operator. Note: this function uses a\r\n     * `revert` opcode (which leaves remaining gas untouched) while Solidity\r\n     * uses an invalid opcode to revert (consuming all remaining gas).\r\n     *\r\n     * Requirements:\r\n     * - The divisor cannot be zero.\r\n     */\r\n    function div(uint256 a, uint256 b) internal pure returns (uint256) {\r\n        return div(a, b, \"SafeMath: division by zero\");\r\n    }\r\n\r\n    /**\r\n     * @dev Returns the integer division of two unsigned integers. Reverts with custom message on\r\n     * division by zero. The result is rounded towards zero.\r\n     *\r\n     * Counterpart to Solidity's `/` operator. Note: this function uses a\r\n     * `revert` opcode (which leaves remaining gas untouched) while Solidity\r\n     * uses an invalid opcode to revert (consuming all remaining gas).\r\n     *\r\n     * Requirements:\r\n     * - The divisor cannot be zero.\r\n     *\r\n     * _Available since v2.4.0._\r\n     */\r\n    function div(\r\n        uint256 a,\r\n        uint256 b,\r\n        string memory errorMessage\r\n    ) internal pure returns (uint256) {\r\n        // Solidity only automatically asserts when dividing by 0\r\n        require(b > 0, errorMessage);\r\n        uint256 c = a / b;\r\n        // assert(a == b * c + a % b); // There is no case in which this doesn't hold\r\n\r\n        return c;\r\n    }\r\n\r\n    /**\r\n     * @dev Returns the remainder of dividing two unsigned integers. (unsigned integer modulo),\r\n     * Reverts when dividing by zero.\r\n     *\r\n     * Counterpart to Solidity's `%` operator. This function uses a `revert`\r\n     * opcode (which leaves remaining gas untouched) while Solidity uses an\r\n     * invalid opcode to revert (consuming all remaining gas).\r\n     *\r\n     * Requirements:\r\n     * - The divisor cannot be zero.\r\n     */\r\n    function mod(uint256 a, uint256 b) internal pure returns (uint256) {\r\n        return mod(a, b, \"SafeMath: modulo by zero\");\r\n    }\r\n\r\n    /**\r\n     * @dev Returns the remainder of dividing two unsigned integers. (unsigned integer modulo),\r\n     * Reverts with custom message when dividing by zero.\r\n     *\r\n     * Counterpart to Solidity's `%` operator. This function uses a `revert`\r\n     * opcode (which leaves remaining gas untouched) while Solidity uses an\r\n     * invalid opcode to revert (consuming all remaining gas).\r\n     *\r\n     * Requirements:\r\n     * - The divisor cannot be zero.\r\n     *\r\n     * _Available since v2.4.0._\r\n     */\r\n    function mod(\r\n        uint256 a,\r\n        uint256 b,\r\n        string memory errorMessage\r\n    ) internal pure returns (uint256) {\r\n        require(b != 0, errorMessage);\r\n        return a % b;\r\n    }\r\n}\r\n\r\n// File: contracts/utils/Address.sol\r\n\r\npragma solidity ^0.8.0;\r\n\r\n/**\r\n * @dev Collection of functions related to the address type\r\n */\r\nlibrary Address {\r\n    /**\r\n     * @dev Returns true if `account` is a contract.\r\n     *\r\n     * [IMPORTANT]\r\n     * ====\r\n     * It is unsafe to assume that an address for which this function returns\r\n     * false is an externally-owned account (EOA) and not a contract.\r\n     *\r\n     * Among others, `isContract` will return false for the following\r\n     * types of addresses:\r\n     *\r\n     *  - an externally-owned account\r\n     *  - a contract in construction\r\n     *  - an address where a contract will be created\r\n     *  - an address where a contract lived, but was destroyed\r\n     * ====\r\n     */\r\n    function isContract(address account) internal view returns (bool) {\r\n        // According to EIP-1052, 0x0 is the value returned for not-yet created accounts\r\n        // and 0xc5d2460186f7233c927e7db2dcc703c0e500b653ca82273b7bfad8045d85a470 is returned\r\n        // for accounts without code, i.e. `keccak256('')`\r\n        bytes32 codehash;\r\n        bytes32 accountHash =\r\n            0xc5d2460186f7233c927e7db2dcc703c0e500b653ca82273b7bfad8045d85a470;\r\n        // solhint-disable-next-line no-inline-assembly\r\n        assembly {\r\n            codehash := extcodehash(account)\r\n        }\r\n        return (codehash != accountHash && codehash != 0x0);\r\n    }\r\n\r\n    /**\r\n     * @dev Converts an `address` into `address payable`. Note that this is\r\n     * simply a type cast: the actual underlying value is not changed.\r\n     *\r\n     * _Available since v2.4.0._\r\n     */\r\n    function toPayable(address account)\r\n        internal\r\n        pure\r\n        returns (address payable)\r\n    {\r\n        return payable(address(uint160(account)));\r\n    }\r\n\r\n    /**\r\n     * @dev Replacement for Solidity's `transfer`: sends `amount` wei to\r\n     * `recipient`, forwarding all available gas and reverting on errors.\r\n     *\r\n     * https://eips.ethereum.org/EIPS/eip-1884[EIP1884] increases the gas cost\r\n     * of certain opcodes, possibly making contracts go over the 2300 gas limit\r\n     * imposed by `transfer`, making them unable to receive funds via\r\n     * `transfer`. {sendValue} removes this limitation.\r\n     *\r\n     * https://diligence.consensys.net/posts/2019/09/stop-using-soliditys-transfer-now/[Learn more].\r\n     *\r\n     * IMPORTANT: because control is transferred to `recipient`, care must be\r\n     * taken to not create reentrancy vulnerabilities. Consider using\r\n     * {ReentrancyGuard} or the\r\n     * https://solidity.readthedocs.io/en/v0.5.11/security-considerations.html#use-the-checks-effects-interactions-pattern[checks-effects-interactions pattern].\r\n     *\r\n     * _Available since v2.4.0._\r\n     */\r\n    function sendValue(address payable recipient, uint256 amount) internal {\r\n        require(\r\n            address(this).balance >= amount,\r\n            \"Address: insufficient balance\"\r\n        );\r\n\r\n        // solhint-disable-next-line avoid-call-value\r\n\r\n        (bool success, ) = recipient.call{value: amount}(\"\");\r\n        require(\r\n            success,\r\n            \"Address: unable to send value, recipient may have reverted\"\r\n        );\r\n    }\r\n}\r\n\r\n// File: contracts/token/ERC20/SafeERC20.sol\r\n\r\npragma solidity ^0.8.0;\r\n\r\n/**\r\n * @title SafeERC20\r\n * @dev Wrappers around ERC20 operations that throw on failure (when the token\r\n * contract returns false). Tokens that return no value (and instead revert or\r\n * throw on failure) are also supported, non-reverting calls are assumed to be\r\n * successful.\r\n * To use this library you can add a `using SafeERC20 for ERC20;` statement to your contract,\r\n * which allows you to call the safe operations as `token.safeTransfer(...)`, etc.\r\n */\r\nlibrary SafeERC20 {\r\n    using SafeMath for uint256;\r\n    using Address for address;\r\n\r\n    function safeTransfer(\r\n        IERC20 token,\r\n        address to,\r\n        uint256 value\r\n    ) internal {\r\n        callOptionalReturn(\r\n            token,\r\n            abi.encodeWithSelector(token.transfer.selector, to, value)\r\n        );\r\n    }\r\n\r\n    function safeTransferFrom(\r\n        IERC20 token,\r\n        address from,\r\n        address to,\r\n        uint256 value\r\n    ) internal {\r\n        callOptionalReturn(\r\n            token,\r\n            abi.encodeWithSelector(token.transferFrom.selector, from, to, value)\r\n        );\r\n    }\r\n\r\n    function safeApprove(\r\n        IERC20 token,\r\n        address spender,\r\n        uint256 value\r\n    ) internal {\r\n        // safeApprove should only be called when setting an initial allowance,\r\n        // or when resetting it to zero. To increase and decrease it, use\r\n        // 'safeIncreaseAllowance' and 'safeDecreaseAllowance'\r\n        // solhint-disable-next-line max-line-length\r\n        require(\r\n            (value == 0) || (token.allowance(address(this), spender) == 0),\r\n            \"SafeERC20: approve from non-zero to non-zero allowance\"\r\n        );\r\n        callOptionalReturn(\r\n            token,\r\n            abi.encodeWithSelector(token.approve.selector, spender, value)\r\n        );\r\n    }\r\n\r\n    function safeIncreaseAllowance(\r\n        IERC20 token,\r\n        address spender,\r\n        uint256 value\r\n    ) internal {\r\n        uint256 newAllowance =\r\n            token.allowance(address(this), spender).add(value);\r\n        callOptionalReturn(\r\n            token,\r\n            abi.encodeWithSelector(\r\n                token.approve.selector,\r\n                spender,\r\n                newAllowance\r\n            )\r\n        );\r\n    }\r\n\r\n    function safeDecreaseAllowance(\r\n        IERC20 token,\r\n        address spender,\r\n        uint256 value\r\n    ) internal {\r\n        uint256 newAllowance =\r\n            token.allowance(address(this), spender).sub(\r\n                value,\r\n                \"SafeERC20: decreased allowance below zero\"\r\n            );\r\n        callOptionalReturn(\r\n            token,\r\n            abi.encodeWithSelector(\r\n                token.approve.selector,\r\n                spender,\r\n                newAllowance\r\n            )\r\n        );\r\n    }\r\n\r\n    /**\r\n     * @dev Imitates a Solidity high-level call (i.e. a regular function call to a contract), relaxing the requirement\r\n     * on the return value: the return value is optional (but if data is returned, it must not be false).\r\n     * @param token The token targeted by the call.\r\n     * @param data The call data (encoded using abi.encode or one of its variants).\r\n     */\r\n    function callOptionalReturn(IERC20 token, bytes memory data) private {\r\n        // We need to perform a low level call here, to bypass Solidity's return data size checking mechanism, since\r\n        // we're implementing it ourselves.\r\n\r\n        // A Solidity high level call has three parts:\r\n        //  1. The target address is checked to verify it contains contract code\r\n        //  2. The call itself is made, and success asserted\r\n        //  3. The return value is decoded, which in turn checks the size of the returned data.\r\n        // solhint-disable-next-line max-line-length\r\n        require(address(token).isContract(), \"SafeERC20: call to non-contract\");\r\n\r\n        // solhint-disable-next-line avoid-low-level-calls\r\n        (bool success, bytes memory returndata) = address(token).call(data);\r\n        require(success, \"SafeERC20: low-level call failed\");\r\n\r\n        if (returndata.length > 0) {\r\n            // Return data is optional\r\n            // solhint-disable-next-line max-line-length\r\n            require(\r\n                abi.decode(returndata, (bool)),\r\n                \"SafeERC20: ERC20 operation did not succeed\"\r\n            );\r\n        }\r\n    }\r\n}\r\n\r\n// File: contracts/utils/ReentrancyGuard.sol\r\n\r\npragma solidity ^0.8.0;\r\n\r\n/**\r\n * @dev Contract module that helps prevent reentrant calls to a function.\r\n *\r\n * Inheriting from `ReentrancyGuard` will make the {nonReentrant} modifier\r\n * available, which can be applied to functions to make sure there are no nested\r\n * (reentrant) calls to them.\r\n *\r\n * Note that because there is a single `nonReentrant` guard, functions marked as\r\n * `nonReentrant` may not call one another. This can be worked around by making\r\n * those functions `private`, and then adding `external` `nonReentrant` entry\r\n * points to them.\r\n *\r\n * TIP: If you would like to learn more about reentrancy and alternative ways\r\n * to protect against it, check out our blog post\r\n * https://blog.openzeppelin.com/reentrancy-after-istanbul/[Reentrancy After Istanbul].\r\n *\r\n * _Since v2.5.0:_ this module is now much more gas efficient, given net gas\r\n * metering changes introduced in the Istanbul hardfork.\r\n */\r\ncontract ReentrancyGuard {\r\n    bool private _notEntered;\r\n\r\n    constructor() {\r\n        // Storing an initial non-zero value makes deployment a bit more\r\n        // expensive, but in exchange the refund on every call to nonReentrant\r\n        // will be lower in amount. Since refunds are capped to a percetange of\r\n        // the total transaction's gas, it is best to keep them low in cases\r\n        // like this one, to increase the likelihood of the full refund coming\r\n        // into effect.\r\n        _notEntered = true;\r\n    }\r\n\r\n    /**\r\n     * @dev Prevents a contract from calling itself, directly or indirectly.\r\n     * Calling a `nonReentrant` function from another `nonReentrant`\r\n     * function is not supported. It is possible to prevent this from happening\r\n     * by making the `nonReentrant` function external, and make it call a\r\n     * `private` function that does the actual work.\r\n     */\r\n    modifier nonReentrant() {\r\n        // On the first call to nonReentrant, _notEntered will be true\r\n        require(_notEntered, \"ReentrancyGuard: reentrant call\");\r\n\r\n        // Any calls to nonReentrant after this point will fail\r\n        _notEntered = false;\r\n\r\n        _;\r\n\r\n        // By storing the original value once again, a refund is triggered (see\r\n        // https://eips.ethereum.org/EIPS/eip-2200)\r\n        _notEntered = true;\r\n    }\r\n}\r\n\r\n// File: contracts/crowdsale/Crowdsale.sol\r\n\r\npragma solidity ^0.8.0;\r\n\r\n/**\r\n * @title Crowdsale\r\n * @dev Crowdsale is a base contract for managing a token crowdsale,\r\n * allowing investors to purchase tokens with ether. This contract implements\r\n * such functionality in its most fundamental form and can be extended to provide additional\r\n * functionality and/or custom behavior.\r\n * The external interface represents the basic interface for purchasing tokens, and conforms\r\n * the base architecture for crowdsales. It is *not* intended to be modified / overridden.\r\n * The internal interface conforms the extensible and modifiable surface of crowdsales. Override\r\n * the methods to add functionality. Consider using 'super' where appropriate to concatenate\r\n * behavior.\r\n */\r\ncontract Crowdsale is ReentrancyGuard {\r\n    using SafeMath for uint256;\r\n    using SafeERC20 for IERC20;\r\n\r\n    // The token being sold\r\n    IERC20 private _token;\r\n\r\n    // Address where funds are collected\r\n    address payable private _wallet;\r\n\r\n    // How many token units a buyer gets per wei.\r\n    // The rate is the conversion between wei and the smallest and indivisible token unit.\r\n    // So, if you are using a rate of 1 with a ERC20Detailed token with 3 decimals called TOK\r\n    // 1 wei will give you 1 unit, or 0.001 TOK.\r\n    uint256 private _rate;\r\n\r\n    // Amount of wei raised\r\n    uint256 private _weiRaised;\r\n\r\n    /**\r\n     * Event for token purchase logging\r\n     * @param purchaser who paid for the tokens\r\n     * @param beneficiary who got the tokens\r\n     * @param value weis paid for purchase\r\n     * @param amount amount of tokens purchased\r\n     */\r\n    event TokensPurchased(\r\n        address indexed purchaser,\r\n        address indexed beneficiary,\r\n        uint256 value,\r\n        uint256 amount\r\n    );\r\n\r\n    /**\r\n     * @param rate Number of token units a buyer gets per wei\r\n     * @dev The rate is the conversion between wei and the smallest and indivisible\r\n     * token unit. So, if you are using a rate of 1 with a ERC20Detailed token\r\n     * with 3 decimals called TOK, 1 wei will give you 1 unit, or 0.001 TOK.\r\n     * @param wallet Address where collected funds will be forwarded to\r\n     * @param token Address of the token being sold\r\n     */\r\n    constructor(\r\n        uint256 rate,\r\n        address payable wallet,\r\n        IERC20 token\r\n    ) {\r\n        require(rate > 0, \"Crowdsale: rate is 0\");\r\n        require(wallet != address(0), \"Crowdsale: wallet is the zero address\");\r\n        require(\r\n            address(token) != address(0),\r\n            \"Crowdsale: token is the zero address\"\r\n        );\r\n\r\n        _rate = rate;\r\n        _wallet = wallet;\r\n        _token = token;\r\n    }\r\n\r\n    /**\r\n     * @dev fallback function ***DO NOT OVERRIDE***\r\n     * Note that other contracts will transfer funds with a base gas stipend\r\n     * of 2300, which is not enough to call buyTokens. Consider calling\r\n     * buyTokens directly when purchasing tokens from a contract.\r\n     */\r\n    receive() external payable {\r\n        buyTokens(_msgSender());\r\n    }\r\n\r\n    /**\r\n     * @return the token being sold.\r\n     */\r\n    function tokenShow() public view returns (IERC20) {\r\n        return _token;\r\n    }\r\n\r\n    /**\r\n     * @return the address where funds are collected.\r\n     */\r\n    function walletShow() public view returns (address payable) {\r\n        return _wallet;\r\n    }\r\n\r\n    /**\r\n     * @return the number of token units a buyer gets per wei.\r\n     */\r\n    function rateShow() public view returns (uint256) {\r\n        return _rate;\r\n    }\r\n\r\n    /**\r\n     * @return the amount of wei raised.\r\n     */\r\n    function weiRaised() public view returns (uint256) {\r\n        return _weiRaised;\r\n    }\r\n\r\n    function _msgSender() public view returns (address payable) {\r\n        return payable(msg.sender);\r\n    }\r\n\r\n    function _msgData() public view returns (bytes memory) {\r\n        this; // silence state mutability warning without generating bytecode - see https://github.com/ethereum/solidity/issues/2691\r\n        return msg.data;\r\n    }\r\n\r\n    /**\r\n     * @dev low level token purchase ***DO NOT OVERRIDE***\r\n     * This function has a non-reentrancy guard, so it shouldn't be called by\r\n     * another `nonReentrant` function.\r\n     * @param beneficiary Recipient of the token purchase\r\n     */\r\n    function buyTokens(address beneficiary) public payable nonReentrant {\r\n        uint256 weiAmount = msg.value;\r\n        _preValidatePurchase(beneficiary, weiAmount);\r\n\r\n        // calculate token amount to be created\r\n        uint256 tokens = _getTokenAmount(weiAmount);\r\n\r\n        // update state\r\n        _weiRaised = _weiRaised.add(weiAmount);\r\n\r\n        _processPurchase(beneficiary, tokens);\r\n        emit TokensPurchased(_msgSender(), beneficiary, weiAmount, tokens);\r\n\r\n        _updatePurchasingState(beneficiary, weiAmount);\r\n\r\n        _forwardFunds();\r\n        _postValidatePurchase(beneficiary, weiAmount);\r\n    }\r\n\r\n    /**\r\n     * @dev Validation of an incoming purchase. Use require statements to revert state when conditions are not met.\r\n     * Use `super` in contracts that inherit from Crowdsale to extend their validations.\r\n     * Example from CappedCrowdsale.sol's _preValidatePurchase method:\r\n     *     super._preValidatePurchase(beneficiary, weiAmount);\r\n     *     require(weiRaised().add(weiAmount) <= cap);\r\n     * @param beneficiary Address performing the token purchase\r\n     * @param weiAmount Value in wei involved in the purchase\r\n     */\r\n    function _preValidatePurchase(address beneficiary, uint256 weiAmount)\r\n        internal\r\n        view\r\n        virtual\r\n    {\r\n        require(\r\n            beneficiary != address(0),\r\n            \"Crowdsale: beneficiary is the zero address\"\r\n        );\r\n        require(weiAmount != 0, \"Crowdsale: weiAmount is 0\");\r\n        this; // silence state mutability warning without generating bytecode - see https://github.com/ethereum/solidity/issues/2691\r\n    }\r\n\r\n    /**\r\n     * @dev Validation of an executed purchase. Observe state and use revert statements to undo rollback when valid\r\n     * conditions are not met.\r\n     * @param beneficiary Address performing the token purchase\r\n     * @param weiAmount Value in wei involved in the purchase\r\n     */\r\n    function _postValidatePurchase(address beneficiary, uint256 weiAmount)\r\n        internal\r\n        view\r\n        virtual\r\n    {\r\n        // solhint-disable-previous-line no-empty-blocks\r\n    }\r\n\r\n    /**\r\n     * @dev Source of tokens. Override this method to modify the way in which the crowdsale ultimately gets and sends\r\n     * its tokens.\r\n     * @param beneficiary Address performing the token purchase\r\n     * @param tokenAmount Number of tokens to be emitted\r\n     */\r\n    function _deliverTokens(address beneficiary, uint256 tokenAmount)\r\n        internal\r\n        virtual\r\n    {\r\n        _token.safeTransfer(beneficiary, tokenAmount);\r\n    }\r\n\r\n    /**\r\n     * @dev Executed when a purchase has been validated and is ready to be executed. Doesn't necessarily emit/send\r\n     * tokens.\r\n     * @param beneficiary Address receiving the tokens\r\n     * @param tokenAmount Number of tokens to be purchased\r\n     */\r\n    function _processPurchase(address beneficiary, uint256 tokenAmount)\r\n        internal\r\n        virtual\r\n    {\r\n        _deliverTokens(beneficiary, tokenAmount);\r\n    }\r\n\r\n    /**\r\n     * @dev Override for extensions that require an internal state to check for validity (current user contributions,\r\n     * etc.)\r\n     * @param beneficiary Address receiving the tokens\r\n     * @param weiAmount Value in wei involved in the purchase\r\n     */\r\n    function _updatePurchasingState(address beneficiary, uint256 weiAmount)\r\n        internal\r\n        virtual\r\n    {\r\n        // solhint-disable-previous-line no-empty-blocks\r\n    }\r\n\r\n    /**\r\n     * @dev Override to extend the way in which ether is converted to tokens.\r\n     * @param weiAmount Value in wei to be converted into tokens\r\n     * @return Number of tokens that can be purchased with the specified _weiAmount\r\n     */\r\n    function _getTokenAmount(uint256 weiAmount)\r\n        internal\r\n        view\r\n        returns (uint256)\r\n    {\r\n        return weiAmount.mul(_rate);\r\n    }\r\n\r\n    /**\r\n     * @dev Determines how ETH is stored/forwarded on purchases.\r\n     */\r\n    function _forwardFunds() internal virtual {\r\n        _wallet.transfer(msg.value);\r\n    }\r\n}\r\n",
  "sourcePath": "D:/CrowdFunding/contracts/Crowdsale.sol",
  "compiler": {
    "name": "solc",
    "version": "0.8.3+commit.8d00100c.Emscripten.clang"
  },
  "schemaVersion": "3.3.4",
  "updatedAt": "2021-04-20T14:22:40.578Z",
  "devdoc": {
    "details": "Crowdsale is a base contract for managing a token crowdsale, allowing investors to purchase tokens with ether. This contract implements such functionality in its most fundamental form and can be extended to provide additional functionality and/or custom behavior. The external interface represents the basic interface for purchasing tokens, and conforms the base architecture for crowdsales. It is *not* intended to be modified / overridden. The internal interface conforms the extensible and modifiable surface of crowdsales. Override the methods to add functionality. Consider using 'super' where appropriate to concatenate behavior.",
    "events": {
      "TokensPurchased(address,address,uint256,uint256)": {
        "params": {
          "amount": "amount of tokens purchased",
          "beneficiary": "who got the tokens",
          "purchaser": "who paid for the tokens",
          "value": "weis paid for purchase"
        }
      }
    },
    "kind": "dev",
    "methods": {
      "buyTokens(address)": {
        "details": "low level token purchase ***DO NOT OVERRIDE*** This function has a non-reentrancy guard, so it shouldn't be called by another `nonReentrant` function.",
        "params": {
          "beneficiary": "Recipient of the token purchase"
        }
      },
      "constructor": {
        "details": "The rate is the conversion between wei and the smallest and indivisible token unit. So, if you are using a rate of 1 with a ERC20Detailed token with 3 decimals called TOK, 1 wei will give you 1 unit, or 0.001 TOK.",
        "params": {
          "rate": "Number of token units a buyer gets per wei",
          "token": "Address of the token being sold",
          "wallet": "Address where collected funds will be forwarded to"
        }
      },
      "rateShow()": {
        "returns": {
          "_0": "the number of token units a buyer gets per wei."
        }
      },
      "tokenShow()": {
        "returns": {
          "_0": "the token being sold."
        }
      },
      "walletShow()": {
        "returns": {
          "_0": "the address where funds are collected."
        }
      },
      "weiRaised()": {
        "returns": {
          "_0": "the amount of wei raised."
        }
      }
    },
    "title": "Crowdsale",
    "version": 1
  },
  "userdoc": {
    "events": {
      "TokensPurchased(address,address,uint256,uint256)": {
        "notice": "Event for token purchase logging"
      }
    },
    "kind": "user",
    "methods": {},
    "version": 1
  }
}