{
  "contractName": "MyTokenSale",
  "abi": [
    {
      "inputs": [
        {
          "internalType": "uint256",
          "name": "rate",
          "type": "uint256"
        },
        {
          "internalType": "address payable",
          "name": "wallet",
          "type": "address"
        },
        {
          "internalType": "contract IERC20",
          "name": "token",
          "type": "address"
        },
        {
          "internalType": "contract KycContract",
          "name": "_kyc",
          "type": "address"
        }
      ],
      "stateMutability": "nonpayable",
      "type": "constructor"
    },
    {
      "anonymous": false,
      "inputs": [
        {
          "indexed": true,
          "internalType": "address",
          "name": "purchaser",
          "type": "address"
        },
        {
          "indexed": true,
          "internalType": "address",
          "name": "beneficiary",
          "type": "address"
        },
        {
          "indexed": false,
          "internalType": "uint256",
          "name": "value",
          "type": "uint256"
        },
        {
          "indexed": false,
          "internalType": "uint256",
          "name": "amount",
          "type": "uint256"
        }
      ],
      "name": "TokensPurchased",
      "type": "event"
    },
    {
      "inputs": [],
      "name": "_msgData",
      "outputs": [
        {
          "internalType": "bytes",
          "name": "",
          "type": "bytes"
        }
      ],
      "stateMutability": "view",
      "type": "function",
      "constant": true
    },
    {
      "inputs": [],
      "name": "_msgSender",
      "outputs": [
        {
          "internalType": "address payable",
          "name": "",
          "type": "address"
        }
      ],
      "stateMutability": "view",
      "type": "function",
      "constant": true
    },
    {
      "inputs": [],
      "name": "_pause",
      "outputs": [],
      "stateMutability": "nonpayable",
      "type": "function"
    },
    {
      "inputs": [
        {
          "internalType": "address",
          "name": "beneficiary",
          "type": "address"
        }
      ],
      "name": "buyTokens",
      "outputs": [],
      "stateMutability": "payable",
      "type": "function",
      "payable": true
    },
    {
      "inputs": [],
      "name": "rateShow",
      "outputs": [
        {
          "internalType": "uint256",
          "name": "",
          "type": "uint256"
        }
      ],
      "stateMutability": "view",
      "type": "function",
      "constant": true
    },
    {
      "inputs": [],
      "name": "tokenShow",
      "outputs": [
        {
          "internalType": "contract IERC20",
          "name": "",
          "type": "address"
        }
      ],
      "stateMutability": "view",
      "type": "function",
      "constant": true
    },
    {
      "inputs": [],
      "name": "walletShow",
      "outputs": [
        {
          "internalType": "address payable",
          "name": "",
          "type": "address"
        }
      ],
      "stateMutability": "view",
      "type": "function",
      "constant": true
    },
    {
      "inputs": [],
      "name": "weiRaised",
      "outputs": [
        {
          "internalType": "uint256",
          "name": "",
          "type": "uint256"
        }
      ],
      "stateMutability": "view",
      "type": "function",
      "constant": true
    },
    {
      "stateMutability": "payable",
      "type": "receive",
      "payable": true
    }
  ],
  "bytecode": "0x60806040523480156200001157600080fd5b5060405162001a8138038062001a8183398181016040528101906200003791906200030f565b83838360016000806101000a81548160ff021916908315150217905550600083116200009a576040517f08c379a0000000000000000000000000000000000000000000000000000000008152600401620000919062000412565b60405180910390fd5b600073ffffffffffffffffffffffffffffffffffffffff168273ffffffffffffffffffffffffffffffffffffffff1614156200010d576040517f08c379a0000000000000000000000000000000000000000000000000000000008152600401620001049062000434565b60405180910390fd5b600073ffffffffffffffffffffffffffffffffffffffff168173ffffffffffffffffffffffffffffffffffffffff16141562000180576040517f08c379a00000000000000000000000000000000000000000000000000000000081526004016200017790620003f0565b60405180910390fd5b8260028190555081600160006101000a81548173ffffffffffffffffffffffffffffffffffffffff021916908373ffffffffffffffffffffffffffffffffffffffff16021790555080600060016101000a81548173ffffffffffffffffffffffffffffffffffffffff021916908373ffffffffffffffffffffffffffffffffffffffff1602179055505050506000600460146101000a81548160ff02191690831515021790555033600460006101000a81548173ffffffffffffffffffffffffffffffffffffffff021916908373ffffffffffffffffffffffffffffffffffffffff16021790555080600560006101000a81548173ffffffffffffffffffffffffffffffffffffffff021916908373ffffffffffffffffffffffffffffffffffffffff1602179055505050505062000610565b600081519050620002c481620005a8565b92915050565b600081519050620002db81620005c2565b92915050565b600081519050620002f281620005dc565b92915050565b6000815190506200030981620005f6565b92915050565b600080600080608085870312156200032657600080fd5b60006200033687828801620002f8565b94505060206200034987828801620002b3565b93505060406200035c87828801620002ca565b92505060606200036f87828801620002e1565b91505092959194509250565b60006200038a60248362000456565b91506200039782620004e1565b604082019050919050565b6000620003b160148362000456565b9150620003be8262000530565b602082019050919050565b6000620003d860258362000456565b9150620003e58262000559565b604082019050919050565b600060208201905081810360008301526200040b816200037b565b9050919050565b600060208201905081810360008301526200042d81620003a2565b9050919050565b600060208201905081810360008301526200044f81620003c9565b9050919050565b600082825260208201905092915050565b60006200047482620004b7565b9050919050565b60006200048882620004b7565b9050919050565b60006200049c8262000467565b9050919050565b6000620004b08262000467565b9050919050565b600073ffffffffffffffffffffffffffffffffffffffff82169050919050565b6000819050919050565b7f43726f776473616c653a20746f6b656e20697320746865207a65726f2061646460008201527f7265737300000000000000000000000000000000000000000000000000000000602082015250565b7f43726f776473616c653a20726174652069732030000000000000000000000000600082015250565b7f43726f776473616c653a2077616c6c657420697320746865207a65726f20616460008201527f6472657373000000000000000000000000000000000000000000000000000000602082015250565b620005b3816200047b565b8114620005bf57600080fd5b50565b620005cd816200048f565b8114620005d957600080fd5b50565b620005e781620004a3565b8114620005f357600080fd5b50565b6200060181620004d7565b81146200060d57600080fd5b50565b61146180620006206000396000f3fe60806040526004361061007f5760003560e01c80638b49d47e1161004e5780638b49d47e14610133578063b26214c01461015e578063ec8ac4d814610189578063f8c365ea146101a557610096565b80630792edd51461009b578063119df25f146100c6578063320b2ad9146100f15780634042b66f1461010857610096565b366100965761009461008f6101d0565b6101d8565b005b600080fd5b3480156100a757600080fd5b506100b0610329565b6040516100bd9190610d6a565b60405180910390f35b3480156100d257600080fd5b506100db6101d0565b6040516100e89190610d6a565b60405180910390f35b3480156100fd57600080fd5b50610106610353565b005b34801561011457600080fd5b5061011d610400565b60405161012a9190610f4b565b60405180910390f35b34801561013f57600080fd5b5061014861040a565b6040516101559190610dae565b60405180910390f35b34801561016a57600080fd5b50610173610457565b6040516101809190610dd0565b60405180910390f35b6101a3600480360381019061019e9190610abf565b6101d8565b005b3480156101b157600080fd5b506101ba610480565b6040516101c79190610f4b565b60405180910390f35b600033905090565b60008054906101000a900460ff16610225576040517f08c379a000000000000000000000000000000000000000000000000000000000815260040161021c90610eeb565b60405180910390fd5b60008060006101000a81548160ff021916908315150217905550600034905061024e828261048a565b6000610259826105d2565b9050610270826003546105f090919063ffffffff16565b600381905550610280838261064e565b8273ffffffffffffffffffffffffffffffffffffffff1661029f6101d0565b73ffffffffffffffffffffffffffffffffffffffff167f6faf93231a456e552dbc9961f58d9713ee4f2e69d15f1975b050ef0911053a7b84846040516102e6929190610f66565b60405180910390a36102f8838361065c565b610300610660565b61030a83836106cb565b505060016000806101000a81548160ff02191690831515021790555050565b6000600160009054906101000a900473ffffffffffffffffffffffffffffffffffffffff16905090565b600460009054906101000a900473ffffffffffffffffffffffffffffffffffffffff1673ffffffffffffffffffffffffffffffffffffffff163373ffffffffffffffffffffffffffffffffffffffff16146103e3576040517f08c379a00000000000000000000000000000000000000000000000000000000081526004016103da90610eab565b60405180910390fd5b6001600460146101000a81548160ff021916908315150217905550565b6000600354905090565b60606000368080601f016020809104026020016040519081016040528093929190818152602001838380828437600081840152601f19601f82011690508083019250505050505050905090565b60008060019054906101000a900473ffffffffffffffffffffffffffffffffffffffff16905090565b6000600254905090565b61049482826106cf565b600560009054906101000a900473ffffffffffffffffffffffffffffffffffffffff1673ffffffffffffffffffffffffffffffffffffffff16632eb10fde336040518263ffffffff1660e01b81526004016104ef9190610d4f565b60206040518083038186803b15801561050757600080fd5b505afa15801561051b573d6000803e3d6000fd5b505050506040513d601f19601f8201168201806040525081019061053f9190610ae8565b61057e576040517f08c379a000000000000000000000000000000000000000000000000000000000815260040161057590610e0b565b60405180910390fd5b600460149054906101000a900460ff16156105ce576040517f08c379a00000000000000000000000000000000000000000000000000000000081526004016105c590610e8b565b60405180910390fd5b5050565b60006105e96002548361078790919063ffffffff16565b9050919050565b60008082846105ff9190610fc7565b905083811015610644576040517f08c379a000000000000000000000000000000000000000000000000000000000815260040161063b90610deb565b60405180910390fd5b8091505092915050565b6106588282610802565b5050565b5050565b600160009054906101000a900473ffffffffffffffffffffffffffffffffffffffff1673ffffffffffffffffffffffffffffffffffffffff166108fc349081150290604051600060405180830381858888f193505050501580156106c8573d6000803e3d6000fd5b50565b5050565b600073ffffffffffffffffffffffffffffffffffffffff168273ffffffffffffffffffffffffffffffffffffffff16141561073f576040517f08c379a000000000000000000000000000000000000000000000000000000000815260040161073690610e6b565b60405180910390fd5b6000811415610783576040517f08c379a000000000000000000000000000000000000000000000000000000000815260040161077a90610f0b565b60405180910390fd5b5050565b60008083141561079a57600090506107fc565b600082846107a8919061104e565b90508284826107b7919061101d565b146107f7576040517f08c379a00000000000000000000000000000000000000000000000000000000081526004016107ee90610e4b565b60405180910390fd5b809150505b92915050565b61084f8282600060019054906101000a900473ffffffffffffffffffffffffffffffffffffffff1673ffffffffffffffffffffffffffffffffffffffff166108539092919063ffffffff16565b5050565b6108d48363a9059cbb60e01b8484604051602401610872929190610d85565b604051602081830303815290604052907bffffffffffffffffffffffffffffffffffffffffffffffffffffffff19166020820180517bffffffffffffffffffffffffffffffffffffffffffffffffffffffff83818316178352505050506108d9565b505050565b6108f88273ffffffffffffffffffffffffffffffffffffffff16610a4a565b610937576040517f08c379a000000000000000000000000000000000000000000000000000000000815260040161092e90610f2b565b60405180910390fd5b6000808373ffffffffffffffffffffffffffffffffffffffff168360405161095f9190610d38565b6000604051808303816000865af19150503d806000811461099c576040519150601f19603f3d011682016040523d82523d6000602084013e6109a1565b606091505b5091509150816109e6576040517f08c379a00000000000000000000000000000000000000000000000000000000081526004016109dd90610e2b565b60405180910390fd5b600081511115610a445780806020019051810190610a049190610ae8565b610a43576040517f08c379a0000000000000000000000000000000000000000000000000000000008152600401610a3a90610ecb565b60405180910390fd5b5b50505050565b60008060007fc5d2460186f7233c927e7db2dcc703c0e500b653ca82273b7bfad8045d85a47060001b9050833f9150808214158015610a8c57506000801b8214155b92505050919050565b600081359050610aa4816113fd565b92915050565b600081519050610ab981611414565b92915050565b600060208284031215610ad157600080fd5b6000610adf84828501610a95565b91505092915050565b600060208284031215610afa57600080fd5b6000610b0884828501610aaa565b91505092915050565b610b1a816110ba565b82525050565b610b29816110a8565b82525050565b6000610b3a82610f8f565b610b448185610f9a565b9350610b54818560208601611126565b610b5d816111b7565b840191505092915050565b6000610b7382610f8f565b610b7d8185610fab565b9350610b8d818560208601611126565b80840191505092915050565b610ba281611102565b82525050565b6000610bb5601b83610fb6565b9150610bc0826111c8565b602082019050919050565b6000610bd8601483610fb6565b9150610be3826111f1565b602082019050919050565b6000610bfb602083610fb6565b9150610c068261121a565b602082019050919050565b6000610c1e602183610fb6565b9150610c2982611243565b604082019050919050565b6000610c41602a83610fb6565b9150610c4c82611292565b604082019050919050565b6000610c64601483610fb6565b9150610c6f826112e1565b602082019050919050565b6000610c87600a83610fb6565b9150610c928261130a565b602082019050919050565b6000610caa602a83610fb6565b9150610cb582611333565b604082019050919050565b6000610ccd601f83610fb6565b9150610cd882611382565b602082019050919050565b6000610cf0601983610fb6565b9150610cfb826113ab565b602082019050919050565b6000610d13601f83610fb6565b9150610d1e826113d4565b602082019050919050565b610d32816110f8565b82525050565b6000610d448284610b68565b915081905092915050565b6000602082019050610d646000830184610b20565b92915050565b6000602082019050610d7f6000830184610b11565b92915050565b6000604082019050610d9a6000830185610b20565b610da76020830184610d29565b9392505050565b60006020820190508181036000830152610dc88184610b2f565b905092915050565b6000602082019050610de56000830184610b99565b92915050565b60006020820190508181036000830152610e0481610ba8565b9050919050565b60006020820190508181036000830152610e2481610bcb565b9050919050565b60006020820190508181036000830152610e4481610bee565b9050919050565b60006020820190508181036000830152610e6481610c11565b9050919050565b60006020820190508181036000830152610e8481610c34565b9050919050565b60006020820190508181036000830152610ea481610c57565b9050919050565b60006020820190508181036000830152610ec481610c7a565b9050919050565b60006020820190508181036000830152610ee481610c9d565b9050919050565b60006020820190508181036000830152610f0481610cc0565b9050919050565b60006020820190508181036000830152610f2481610ce3565b9050919050565b60006020820190508181036000830152610f4481610d06565b9050919050565b6000602082019050610f606000830184610d29565b92915050565b6000604082019050610f7b6000830185610d29565b610f886020830184610d29565b9392505050565b600081519050919050565b600082825260208201905092915050565b600081905092915050565b600082825260208201905092915050565b6000610fd2826110f8565b9150610fdd836110f8565b9250827fffffffffffffffffffffffffffffffffffffffffffffffffffffffffffffffff0382111561101257611011611159565b5b828201905092915050565b6000611028826110f8565b9150611033836110f8565b92508261104357611042611188565b5b828204905092915050565b6000611059826110f8565b9150611064836110f8565b9250817fffffffffffffffffffffffffffffffffffffffffffffffffffffffffffffffff048311821515161561109d5761109c611159565b5b828202905092915050565b60006110b3826110d8565b9050919050565b60006110c5826110d8565b9050919050565b60008115159050919050565b600073ffffffffffffffffffffffffffffffffffffffff82169050919050565b6000819050919050565b600061110d82611114565b9050919050565b600061111f826110d8565b9050919050565b60005b83811015611144578082015181840152602081019050611129565b83811115611153576000848401525b50505050565b7f4e487b7100000000000000000000000000000000000000000000000000000000600052601160045260246000fd5b7f4e487b7100000000000000000000000000000000000000000000000000000000600052601260045260246000fd5b6000601f19601f8301169050919050565b7f536166654d6174683a206164646974696f6e206f766572666c6f770000000000600082015250565b7f4b5943204973204e6f7420436f6d706c65746564000000000000000000000000600082015250565b7f5361666545524332303a206c6f772d6c6576656c2063616c6c206661696c6564600082015250565b7f536166654d6174683a206d756c7469706c69636174696f6e206f766572666c6f60008201527f7700000000000000000000000000000000000000000000000000000000000000602082015250565b7f43726f776473616c653a2062656e656669636961727920697320746865207a6560008201527f726f206164647265737300000000000000000000000000000000000000000000602082015250565b7f5061757361626c653a204e6f7420506175736564000000000000000000000000600082015250565b7f4f6e6c792041646d696e00000000000000000000000000000000000000000000600082015250565b7f5361666545524332303a204552433230206f7065726174696f6e20646964206e60008201527f6f74207375636365656400000000000000000000000000000000000000000000602082015250565b7f5265656e7472616e637947756172643a207265656e7472616e742063616c6c00600082015250565b7f43726f776473616c653a20776569416d6f756e74206973203000000000000000600082015250565b7f5361666545524332303a2063616c6c20746f206e6f6e2d636f6e747261637400600082015250565b611406816110a8565b811461141157600080fd5b50565b61141d816110cc565b811461142857600080fd5b5056fea2646970667358221220c63e66e550db5420c43294e076665e5edaf745c007497f617ffe9d4ed9bcec2364736f6c63430008040033",
  "immutableReferences": {},
  "source": "// SPDX-License-Identifier: MIT\r\npragma solidity ^0.8.0;\r\n\r\nimport \"./Crowdsale.sol\";\r\nimport \"./KycContract.sol\";\r\nimport \"./MyPausable.sol\";\r\ncontract MyTokenSale is Crowdsale, MyPausable{    \r\n    KycContract kyc; // kyc contract instance or contract wide scope\r\n  //  MyPausable psb;\r\n    constructor(\r\n        uint256 rate,             //how many wei we need to pay to buy tokens\r\n        address payable wallet,   //this receives amount of wei which are sent to crowdsale\r\n        IERC20 token,              // transfer these tokens once you receive wei in your wallet\r\n        KycContract _kyc        //\r\n       \r\n    ) Crowdsale(rate, wallet, token) {\r\n        kyc=_kyc;      //contract instance created once deployed\r\n        \r\n    }\r\n    \r\n    //overide prevalidate function()\r\n    function _preValidatePurchase(address beneficiary, uint256 weiAmount)\r\n        internal\r\n       view\r\n       virtual\r\n        override\r\n    {\r\n        super._preValidatePurchase(beneficiary,weiAmount);//calling parent contract\r\n       require( kyc.KycCompleted(msg.sender),\"KYC Is Not Completed\");\r\n      require(!_paused, \"Pausable: Not Paused\");\r\n\r\n    }\r\n    \r\n\r\n\r\n    \r\n}\r\n\r\n",
  "sourcePath": "D:/CrowdFunding/contracts/MyTokenSale.sol",
  "compiler": {
    "name": "solc",
    "version": "0.8.4+commit.c7e474f2.Emscripten.clang"
  },
  "schemaVersion": "3.3.4",
  "updatedAt": "2021-05-10T03:55:26.975Z",
  "networkType": "ethereum",
  "devdoc": {
    "kind": "dev",
    "methods": {
      "buyTokens(address)": {
        "details": "low level token purchase ***DO NOT OVERRIDE*** This function has a non-reentrancy guard, so it shouldn't be called by another `nonReentrant` function.",
        "params": {
          "beneficiary": "Recipient of the token purchase"
        }
      },
      "rateShow()": {
        "returns": {
          "_0": "the number of token units a buyer gets per wei."
        }
      },
      "tokenShow()": {
        "returns": {
          "_0": "the token being sold."
        }
      },
      "walletShow()": {
        "returns": {
          "_0": "the address where funds are collected."
        }
      },
      "weiRaised()": {
        "returns": {
          "_0": "the amount of wei raised."
        }
      }
    },
    "version": 1
  },
  "userdoc": {
    "events": {
      "TokensPurchased(address,address,uint256,uint256)": {
        "notice": "Event for token purchase logging"
      }
    },
    "kind": "user",
    "methods": {},
    "version": 1
  }
}