{
  "contractName": "MyTokenSale",
  "abi": [
    {
      "inputs": [
        {
          "internalType": "uint256",
          "name": "rate",
          "type": "uint256"
        },
        {
          "internalType": "address payable",
          "name": "wallet",
          "type": "address"
        },
        {
          "internalType": "contract IERC20",
          "name": "token",
          "type": "address"
        },
        {
          "internalType": "contract KycContract",
          "name": "_kyc",
          "type": "address"
        }
      ],
      "stateMutability": "nonpayable",
      "type": "constructor"
    },
    {
      "anonymous": false,
      "inputs": [
        {
          "indexed": true,
          "internalType": "address",
          "name": "purchaser",
          "type": "address"
        },
        {
          "indexed": true,
          "internalType": "address",
          "name": "beneficiary",
          "type": "address"
        },
        {
          "indexed": false,
          "internalType": "uint256",
          "name": "value",
          "type": "uint256"
        },
        {
          "indexed": false,
          "internalType": "uint256",
          "name": "amount",
          "type": "uint256"
        }
      ],
      "name": "TokensPurchased",
      "type": "event"
    },
    {
      "inputs": [],
      "name": "_msgData",
      "outputs": [
        {
          "internalType": "bytes",
          "name": "",
          "type": "bytes"
        }
      ],
      "stateMutability": "view",
      "type": "function",
      "constant": true
    },
    {
      "inputs": [],
      "name": "_msgSender",
      "outputs": [
        {
          "internalType": "address payable",
          "name": "",
          "type": "address"
        }
      ],
      "stateMutability": "view",
      "type": "function",
      "constant": true
    },
    {
      "inputs": [
        {
          "internalType": "address",
          "name": "beneficiary",
          "type": "address"
        }
      ],
      "name": "buyTokens",
      "outputs": [],
      "stateMutability": "payable",
      "type": "function",
      "payable": true
    },
    {
      "inputs": [],
      "name": "rateShow",
      "outputs": [
        {
          "internalType": "uint256",
          "name": "",
          "type": "uint256"
        }
      ],
      "stateMutability": "view",
      "type": "function",
      "constant": true
    },
    {
      "inputs": [],
      "name": "tokenShow",
      "outputs": [
        {
          "internalType": "contract IERC20",
          "name": "",
          "type": "address"
        }
      ],
      "stateMutability": "view",
      "type": "function",
      "constant": true
    },
    {
      "inputs": [],
      "name": "walletShow",
      "outputs": [
        {
          "internalType": "address payable",
          "name": "",
          "type": "address"
        }
      ],
      "stateMutability": "view",
      "type": "function",
      "constant": true
    },
    {
      "inputs": [],
      "name": "weiRaised",
      "outputs": [
        {
          "internalType": "uint256",
          "name": "",
          "type": "uint256"
        }
      ],
      "stateMutability": "view",
      "type": "function",
      "constant": true
    },
    {
      "stateMutability": "payable",
      "type": "receive",
      "payable": true
    }
  ],
  "bytecode": "0x60806040523480156200001157600080fd5b506040516200182e3803806200182e8339818101604052810190620000379190620002b3565b83838360016000806101000a81548160ff021916908315150217905550600083116200009a576040517f08c379a00000000000000000000000000000000000000000000000000000000081526004016200009190620003b6565b60405180910390fd5b600073ffffffffffffffffffffffffffffffffffffffff168273ffffffffffffffffffffffffffffffffffffffff1614156200010d576040517f08c379a00000000000000000000000000000000000000000000000000000000081526004016200010490620003d8565b60405180910390fd5b600073ffffffffffffffffffffffffffffffffffffffff168173ffffffffffffffffffffffffffffffffffffffff16141562000180576040517f08c379a0000000000000000000000000000000000000000000000000000000008152600401620001779062000394565b60405180910390fd5b8260028190555081600160006101000a81548173ffffffffffffffffffffffffffffffffffffffff021916908373ffffffffffffffffffffffffffffffffffffffff16021790555080600060016101000a81548173ffffffffffffffffffffffffffffffffffffffff021916908373ffffffffffffffffffffffffffffffffffffffff16021790555050505080600460006101000a81548173ffffffffffffffffffffffffffffffffffffffff021916908373ffffffffffffffffffffffffffffffffffffffff16021790555050505050620005b4565b60008151905062000268816200054c565b92915050565b6000815190506200027f8162000566565b92915050565b600081519050620002968162000580565b92915050565b600081519050620002ad816200059a565b92915050565b60008060008060808587031215620002ca57600080fd5b6000620002da878288016200029c565b9450506020620002ed8782880162000257565b935050604062000300878288016200026e565b9250506060620003138782880162000285565b91505092959194509250565b60006200032e602483620003fa565b91506200033b8262000485565b604082019050919050565b600062000355601483620003fa565b91506200036282620004d4565b602082019050919050565b60006200037c602583620003fa565b91506200038982620004fd565b604082019050919050565b60006020820190508181036000830152620003af816200031f565b9050919050565b60006020820190508181036000830152620003d18162000346565b9050919050565b60006020820190508181036000830152620003f3816200036d565b9050919050565b600082825260208201905092915050565b600062000418826200045b565b9050919050565b60006200042c826200045b565b9050919050565b600062000440826200040b565b9050919050565b600062000454826200040b565b9050919050565b600073ffffffffffffffffffffffffffffffffffffffff82169050919050565b6000819050919050565b7f43726f776473616c653a20746f6b656e20697320746865207a65726f2061646460008201527f7265737300000000000000000000000000000000000000000000000000000000602082015250565b7f43726f776473616c653a20726174652069732030000000000000000000000000600082015250565b7f43726f776473616c653a2077616c6c657420697320746865207a65726f20616460008201527f6472657373000000000000000000000000000000000000000000000000000000602082015250565b62000557816200041f565b81146200056357600080fd5b50565b620005718162000433565b81146200057d57600080fd5b50565b6200058b8162000447565b81146200059757600080fd5b50565b620005a5816200047b565b8114620005b157600080fd5b50565b61126a80620005c46000396000f3fe6080604052600436106100745760003560e01c80638b49d47e1161004e5780638b49d47e14610111578063b26214c01461013c578063ec8ac4d814610167578063f8c365ea146101835761008b565b80630792edd514610090578063119df25f146100bb5780634042b66f146100e65761008b565b3661008b576100896100846101ae565b6101b6565b005b600080fd5b34801561009c57600080fd5b506100a5610307565b6040516100b29190610c05565b60405180910390f35b3480156100c757600080fd5b506100d06101ae565b6040516100dd9190610c05565b60405180910390f35b3480156100f257600080fd5b506100fb610331565b6040516101089190610da6565b60405180910390f35b34801561011d57600080fd5b5061012661033b565b6040516101339190610c49565b60405180910390f35b34801561014857600080fd5b50610151610388565b60405161015e9190610c6b565b60405180910390f35b610181600480360381019061017c91906109a0565b6101b6565b005b34801561018f57600080fd5b506101986103b1565b6040516101a59190610da6565b60405180910390f35b600033905090565b60008054906101000a900460ff16610203576040517f08c379a00000000000000000000000000000000000000000000000000000000081526004016101fa90610d46565b60405180910390fd5b60008060006101000a81548160ff021916908315150217905550600034905061022c82826103bb565b6000610237826104b3565b905061024e826003546104d190919063ffffffff16565b60038190555061025e838261052f565b8273ffffffffffffffffffffffffffffffffffffffff1661027d6101ae565b73ffffffffffffffffffffffffffffffffffffffff167f6faf93231a456e552dbc9961f58d9713ee4f2e69d15f1975b050ef0911053a7b84846040516102c4929190610dc1565b60405180910390a36102d6838361053d565b6102de610541565b6102e883836105ac565b505060016000806101000a81548160ff02191690831515021790555050565b6000600160009054906101000a900473ffffffffffffffffffffffffffffffffffffffff16905090565b6000600354905090565b60606000368080601f016020809104026020016040519081016040528093929190818152602001838380828437600081840152601f19601f82011690508083019250505050505050905090565b60008060019054906101000a900473ffffffffffffffffffffffffffffffffffffffff16905090565b6000600254905090565b6103c582826105b0565b600460009054906101000a900473ffffffffffffffffffffffffffffffffffffffff1673ffffffffffffffffffffffffffffffffffffffff16632eb10fde336040518263ffffffff1660e01b81526004016104209190610bea565b60206040518083038186803b15801561043857600080fd5b505afa15801561044c573d6000803e3d6000fd5b505050506040513d601f19601f8201168201806040525081019061047091906109c9565b6104af576040517f08c379a00000000000000000000000000000000000000000000000000000000081526004016104a690610ca6565b60405180910390fd5b5050565b60006104ca6002548361066890919063ffffffff16565b9050919050565b60008082846104e09190610e22565b905083811015610525576040517f08c379a000000000000000000000000000000000000000000000000000000000815260040161051c90610c86565b60405180910390fd5b8091505092915050565b61053982826106e3565b5050565b5050565b600160009054906101000a900473ffffffffffffffffffffffffffffffffffffffff1673ffffffffffffffffffffffffffffffffffffffff166108fc349081150290604051600060405180830381858888f193505050501580156105a9573d6000803e3d6000fd5b50565b5050565b600073ffffffffffffffffffffffffffffffffffffffff168273ffffffffffffffffffffffffffffffffffffffff161415610620576040517f08c379a000000000000000000000000000000000000000000000000000000000815260040161061790610d06565b60405180910390fd5b6000811415610664576040517f08c379a000000000000000000000000000000000000000000000000000000000815260040161065b90610d66565b60405180910390fd5b5050565b60008083141561067b57600090506106dd565b600082846106899190610ea9565b90508284826106989190610e78565b146106d8576040517f08c379a00000000000000000000000000000000000000000000000000000000081526004016106cf90610ce6565b60405180910390fd5b809150505b92915050565b6107308282600060019054906101000a900473ffffffffffffffffffffffffffffffffffffffff1673ffffffffffffffffffffffffffffffffffffffff166107349092919063ffffffff16565b5050565b6107b58363a9059cbb60e01b8484604051602401610753929190610c20565b604051602081830303815290604052907bffffffffffffffffffffffffffffffffffffffffffffffffffffffff19166020820180517bffffffffffffffffffffffffffffffffffffffffffffffffffffffff83818316178352505050506107ba565b505050565b6107d98273ffffffffffffffffffffffffffffffffffffffff1661092b565b610818576040517f08c379a000000000000000000000000000000000000000000000000000000000815260040161080f90610d86565b60405180910390fd5b6000808373ffffffffffffffffffffffffffffffffffffffff16836040516108409190610bd3565b6000604051808303816000865af19150503d806000811461087d576040519150601f19603f3d011682016040523d82523d6000602084013e610882565b606091505b5091509150816108c7576040517f08c379a00000000000000000000000000000000000000000000000000000000081526004016108be90610cc6565b60405180910390fd5b60008151111561092557808060200190518101906108e591906109c9565b610924576040517f08c379a000000000000000000000000000000000000000000000000000000000815260040161091b90610d26565b60405180910390fd5b5b50505050565b60008060007fc5d2460186f7233c927e7db2dcc703c0e500b653ca82273b7bfad8045d85a47060001b9050833f915080821415801561096d57506000801b8214155b92505050919050565b60008135905061098581611206565b92915050565b60008151905061099a8161121d565b92915050565b6000602082840312156109b257600080fd5b60006109c084828501610976565b91505092915050565b6000602082840312156109db57600080fd5b60006109e98482850161098b565b91505092915050565b6109fb81610f15565b82525050565b610a0a81610f03565b82525050565b6000610a1b82610dea565b610a258185610df5565b9350610a35818560208601610f81565b610a3e81611012565b840191505092915050565b6000610a5482610dea565b610a5e8185610e06565b9350610a6e818560208601610f81565b80840191505092915050565b610a8381610f5d565b82525050565b6000610a96601b83610e11565b9150610aa182611023565b602082019050919050565b6000610ab9601483610e11565b9150610ac48261104c565b602082019050919050565b6000610adc602083610e11565b9150610ae782611075565b602082019050919050565b6000610aff602183610e11565b9150610b0a8261109e565b604082019050919050565b6000610b22602a83610e11565b9150610b2d826110ed565b604082019050919050565b6000610b45602a83610e11565b9150610b508261113c565b604082019050919050565b6000610b68601f83610e11565b9150610b738261118b565b602082019050919050565b6000610b8b601983610e11565b9150610b96826111b4565b602082019050919050565b6000610bae601f83610e11565b9150610bb9826111dd565b602082019050919050565b610bcd81610f53565b82525050565b6000610bdf8284610a49565b915081905092915050565b6000602082019050610bff6000830184610a01565b92915050565b6000602082019050610c1a60008301846109f2565b92915050565b6000604082019050610c356000830185610a01565b610c426020830184610bc4565b9392505050565b60006020820190508181036000830152610c638184610a10565b905092915050565b6000602082019050610c806000830184610a7a565b92915050565b60006020820190508181036000830152610c9f81610a89565b9050919050565b60006020820190508181036000830152610cbf81610aac565b9050919050565b60006020820190508181036000830152610cdf81610acf565b9050919050565b60006020820190508181036000830152610cff81610af2565b9050919050565b60006020820190508181036000830152610d1f81610b15565b9050919050565b60006020820190508181036000830152610d3f81610b38565b9050919050565b60006020820190508181036000830152610d5f81610b5b565b9050919050565b60006020820190508181036000830152610d7f81610b7e565b9050919050565b60006020820190508181036000830152610d9f81610ba1565b9050919050565b6000602082019050610dbb6000830184610bc4565b92915050565b6000604082019050610dd66000830185610bc4565b610de36020830184610bc4565b9392505050565b600081519050919050565b600082825260208201905092915050565b600081905092915050565b600082825260208201905092915050565b6000610e2d82610f53565b9150610e3883610f53565b9250827fffffffffffffffffffffffffffffffffffffffffffffffffffffffffffffffff03821115610e6d57610e6c610fb4565b5b828201905092915050565b6000610e8382610f53565b9150610e8e83610f53565b925082610e9e57610e9d610fe3565b5b828204905092915050565b6000610eb482610f53565b9150610ebf83610f53565b9250817fffffffffffffffffffffffffffffffffffffffffffffffffffffffffffffffff0483118215151615610ef857610ef7610fb4565b5b828202905092915050565b6000610f0e82610f33565b9050919050565b6000610f2082610f33565b9050919050565b60008115159050919050565b600073ffffffffffffffffffffffffffffffffffffffff82169050919050565b6000819050919050565b6000610f6882610f6f565b9050919050565b6000610f7a82610f33565b9050919050565b60005b83811015610f9f578082015181840152602081019050610f84565b83811115610fae576000848401525b50505050565b7f4e487b7100000000000000000000000000000000000000000000000000000000600052601160045260246000fd5b7f4e487b7100000000000000000000000000000000000000000000000000000000600052601260045260246000fd5b6000601f19601f8301169050919050565b7f536166654d6174683a206164646974696f6e206f766572666c6f770000000000600082015250565b7f4b5943204973204e6f7420436f6d706c65746564000000000000000000000000600082015250565b7f5361666545524332303a206c6f772d6c6576656c2063616c6c206661696c6564600082015250565b7f536166654d6174683a206d756c7469706c69636174696f6e206f766572666c6f60008201527f7700000000000000000000000000000000000000000000000000000000000000602082015250565b7f43726f776473616c653a2062656e656669636961727920697320746865207a6560008201527f726f206164647265737300000000000000000000000000000000000000000000602082015250565b7f5361666545524332303a204552433230206f7065726174696f6e20646964206e60008201527f6f74207375636365656400000000000000000000000000000000000000000000602082015250565b7f5265656e7472616e637947756172643a207265656e7472616e742063616c6c00600082015250565b7f43726f776473616c653a20776569416d6f756e74206973203000000000000000600082015250565b7f5361666545524332303a2063616c6c20746f206e6f6e2d636f6e747261637400600082015250565b61120f81610f03565b811461121a57600080fd5b50565b61122681610f27565b811461123157600080fd5b5056fea2646970667358221220507f79140fa2de00c8fb60eb4ea295b22626740979c99de6837e9a8141145b0764736f6c63430008040033",
  "immutableReferences": {},
  "source": "// SPDX-License-Identifier: MIT\r\npragma solidity ^0.8.0;\r\n\r\nimport \"./Crowdsale.sol\";\r\nimport \"./KycContract.sol\";\r\n\r\ncontract MyTokenSale is Crowdsale{\r\n    KycContract kyc; // kyc contract instance or contract wide scope\r\n    constructor(\r\n        uint256 rate,             //how many wei we need to pay to buy tokens\r\n        address payable wallet,   //this receives amount of wei which are sent to crowdsale\r\n        IERC20 token,              // transfer these tokens once you receive wei in your wallet\r\n        KycContract _kyc           //\r\n    ) Crowdsale(rate, wallet, token) {\r\n        kyc=_kyc;      //contract instance created once deployed\r\n    }\r\n    \r\n    //overide prevalidate function()\r\n    function _preValidatePurchase(address beneficiary, uint256 weiAmount)\r\n        internal\r\n        view\r\n        virtual\r\n        override\r\n    {\r\n        super._preValidatePurchase(beneficiary,weiAmount);//calling parent contract\r\n       require( kyc.KycCompleted(msg.sender),\"KYC Is Not Completed\");\r\n    }\r\n}",
  "sourcePath": "D:/CrowdFunding/contracts/MyTokenSale.sol",
  "compiler": {
    "name": "solc",
    "version": "0.8.4+commit.c7e474f2.Emscripten.clang"
  },
  "schemaVersion": "3.3.4",
  "updatedAt": "2021-04-29T03:47:18.641Z",
  "networkType": "ethereum",
  "devdoc": {
    "kind": "dev",
    "methods": {
      "buyTokens(address)": {
        "details": "low level token purchase ***DO NOT OVERRIDE*** This function has a non-reentrancy guard, so it shouldn't be called by another `nonReentrant` function.",
        "params": {
          "beneficiary": "Recipient of the token purchase"
        }
      },
      "rateShow()": {
        "returns": {
          "_0": "the number of token units a buyer gets per wei."
        }
      },
      "tokenShow()": {
        "returns": {
          "_0": "the token being sold."
        }
      },
      "walletShow()": {
        "returns": {
          "_0": "the address where funds are collected."
        }
      },
      "weiRaised()": {
        "returns": {
          "_0": "the amount of wei raised."
        }
      }
    },
    "version": 1
  },
  "userdoc": {
    "events": {
      "TokensPurchased(address,address,uint256,uint256)": {
        "notice": "Event for token purchase logging"
      }
    },
    "kind": "user",
    "methods": {},
    "version": 1
  }
}